{
  "contractName": "ProofOfExistence",
  "abi": [
    {
      "constant": true,
      "inputs": [],
      "name": "totalItems",
      "outputs": [
        {
          "name": "",
          "type": "uint256"
        }
      ],
      "payable": false,
      "stateMutability": "view",
      "type": "function"
    },
    {
      "constant": false,
      "inputs": [],
      "name": "withdraw",
      "outputs": [],
      "payable": false,
      "stateMutability": "nonpayable",
      "type": "function"
    },
    {
      "constant": false,
      "inputs": [],
      "name": "kill",
      "outputs": [],
      "payable": false,
      "stateMutability": "nonpayable",
      "type": "function"
    },
    {
      "constant": true,
      "inputs": [],
      "name": "owner",
      "outputs": [
        {
          "name": "",
          "type": "address"
        }
      ],
      "payable": false,
      "stateMutability": "view",
      "type": "function"
    },
    {
      "constant": false,
      "inputs": [
        {
          "name": "_killSwitch",
          "type": "bool"
        }
      ],
      "name": "setKillSwitch",
      "outputs": [],
      "payable": false,
      "stateMutability": "nonpayable",
      "type": "function"
    },
    {
      "constant": true,
      "inputs": [],
      "name": "verifyApiCall",
      "outputs": [
        {
          "name": "",
          "type": "string"
        }
      ],
      "payable": false,
      "stateMutability": "view",
      "type": "function"
    },
    {
      "constant": false,
      "inputs": [
        {
          "name": "newOwner",
          "type": "address"
        }
      ],
      "name": "changeOwner",
      "outputs": [],
      "payable": false,
      "stateMutability": "nonpayable",
      "type": "function"
    },
    {
      "constant": true,
      "inputs": [],
      "name": "killSwitch",
      "outputs": [
        {
          "name": "",
          "type": "bool"
        }
      ],
      "payable": false,
      "stateMutability": "view",
      "type": "function"
    },
    {
      "inputs": [],
      "payable": false,
      "stateMutability": "nonpayable",
      "type": "constructor"
    },
    {
      "anonymous": false,
      "inputs": [
        {
          "indexed": true,
          "name": "_docOwner",
          "type": "address"
        },
        {
          "indexed": false,
          "name": "_hashed_doc",
          "type": "string"
        },
        {
          "indexed": false,
          "name": "_dataType",
          "type": "bytes32"
        },
        {
          "indexed": false,
          "name": "_ipfsHash",
          "type": "string"
        },
        {
          "indexed": false,
          "name": "_docName",
          "type": "bytes32"
        },
        {
          "indexed": false,
          "name": "_publishedBlockNumber",
          "type": "uint256"
        }
      ],
      "name": "DocumentStored",
      "type": "event"
    },
    {
      "anonymous": false,
      "inputs": [
        {
          "indexed": true,
          "name": "_docOwner",
          "type": "address"
        },
        {
          "indexed": false,
          "name": "_hashed_doc",
          "type": "string"
        },
        {
          "indexed": false,
          "name": "_ipfsHash",
          "type": "string"
        },
        {
          "indexed": false,
          "name": "_result",
          "type": "bool"
        }
      ],
      "name": "DocumentVerifyComplete",
      "type": "event"
    },
    {
      "anonymous": false,
      "inputs": [
        {
          "indexed": false,
          "name": "_description",
          "type": "string"
        }
      ],
      "name": "LogNewOraclizeQuery",
      "type": "event"
    },
    {
      "anonymous": false,
      "inputs": [
        {
          "indexed": false,
          "name": "_required",
          "type": "uint256"
        },
        {
          "indexed": false,
          "name": "_sent",
          "type": "uint256"
        }
      ],
      "name": "EmitPrice",
      "type": "event"
    },
    {
      "anonymous": false,
      "inputs": [
        {
          "indexed": false,
          "name": "currentOwner",
          "type": "address"
        },
        {
          "indexed": false,
          "name": "previousOwner",
          "type": "address"
        }
      ],
      "name": "OwnershipChanged",
      "type": "event"
    },
    {
      "constant": false,
      "inputs": [
        {
          "name": "_verifyApiCall",
          "type": "string"
        }
      ],
      "name": "setVerifyAPIGateway",
      "outputs": [],
      "payable": false,
      "stateMutability": "nonpayable",
      "type": "function"
    },
    {
      "constant": false,
      "inputs": [
        {
          "name": "_hashed_doc",
          "type": "string"
        },
        {
          "name": "_docName",
          "type": "bytes32"
        },
        {
          "name": "_ipfsHash",
          "type": "string"
        },
        {
          "name": "_dataType",
          "type": "bytes32"
        }
      ],
      "name": "storeDocumentData",
      "outputs": [],
      "payable": true,
      "stateMutability": "payable",
      "type": "function"
    },
    {
      "constant": true,
      "inputs": [
        {
          "name": "_docHash",
          "type": "string"
        }
      ],
      "name": "getDocumentIPFSHash",
      "outputs": [
        {
          "name": "",
          "type": "string"
        }
      ],
      "payable": false,
      "stateMutability": "view",
      "type": "function"
    },
    {
      "constant": true,
      "inputs": [
        {
          "name": "_docHash",
          "type": "string"
        }
      ],
      "name": "getDocumentMetaData",
      "outputs": [
        {
          "name": "",
          "type": "address"
        },
        {
          "name": "",
          "type": "bytes32"
        },
        {
          "name": "",
          "type": "bytes32"
        },
        {
          "name": "",
          "type": "uint256"
        }
      ],
      "payable": false,
      "stateMutability": "view",
      "type": "function"
    },
    {
      "constant": true,
      "inputs": [
        {
          "name": "_docHash",
          "type": "string"
        }
      ],
      "name": "getDocumentStatus",
      "outputs": [
        {
          "name": "",
          "type": "uint256"
        }
      ],
      "payable": false,
      "stateMutability": "view",
      "type": "function"
    },
    {
      "constant": true,
      "inputs": [
        {
          "name": "_docHash",
          "type": "string"
        }
      ],
      "name": "getDocumentBlockInfo",
      "outputs": [
        {
          "name": "",
          "type": "uint256"
        },
        {
          "name": "",
          "type": "uint256"
        }
      ],
      "payable": false,
      "stateMutability": "view",
      "type": "function"
    },
    {
      "constant": false,
      "inputs": [
        {
          "name": "_queryId",
          "type": "bytes32"
        },
        {
          "name": "result",
          "type": "string"
        }
      ],
      "name": "__callback",
      "outputs": [],
      "payable": false,
      "stateMutability": "nonpayable",
      "type": "function"
    },
    {
      "constant": false,
      "inputs": [
        {
          "name": "myid",
          "type": "bytes32"
        },
        {
          "name": "result",
          "type": "string"
        },
        {
          "name": "proof",
          "type": "bytes"
        }
      ],
      "name": "__callback",
      "outputs": [],
      "payable": false,
      "stateMutability": "nonpayable",
      "type": "function"
    },
    {
      "constant": false,
      "inputs": [
        {
          "name": "_docHash",
          "type": "string"
        },
        {
          "name": "gasPrice",
          "type": "uint256"
        }
      ],
      "name": "verifyIPFSHash",
      "outputs": [],
      "payable": true,
      "stateMutability": "payable",
      "type": "function"
    }
  ],
  "bytecode": "0x608060405234801561001057600080fd5b50336000806101000a81548173ffffffffffffffffffffffffffffffffffffffff021916908373ffffffffffffffffffffffffffffffffffffffff1602179055506001600060146101000a81548160ff0219169083151502179055506142728061007b6000396000f3006080604052600436106100f1576000357c0100000000000000000000000000000000000000000000000000000000900463ffffffff1680630d53c054146100f657806320a71c00146101d85780632799276d1461025c57806327dc297e1461028757806338bbfa50146102fe5780633ccfd60b146103bb57806341c0e1b5146103d257806344798dd7146103e95780637f1a3c581461045257806388c09ee1146104cf5780638da5cb5b1461059d5780639213bda7146105f4578063947ab54014610623578063a6f9dae1146106b3578063ada14698146106f6578063e40e58e014610725578063f3e42af6146107e3575b600080fd5b34801561010257600080fd5b5061015d600480360381019080803590602001908201803590602001908080601f0160208091040260200160405190810160405280939291908181526020018383808284378201915050505050509192919290505050610849565b6040518080602001828103825283818151815260200191508051906020019080838360005b8381101561019d578082015181840152602081019050610182565b50505050905090810190601f1680156101ca5780820380516001836020036101000a031916815260200191505b509250505060405180910390f35b3480156101e457600080fd5b5061023f600480360381019080803590602001908201803590602001908080601f01602080910402602001604051908101604052809392919081815260200183838082843782019150505050505091929192905050506109e9565b604051808381526020018281526020019250505060405180910390f35b34801561026857600080fd5b50610271610b63565b6040518082815260200191505060405180910390f35b34801561029357600080fd5b506102fc6004803603810190808035600019169060200190929190803590602001908201803590602001908080601f0160208091040260200160405190810160405280939291908181526020018383808284378201915050505050509192919290505050610b69565b005b34801561030a57600080fd5b506103b96004803603810190808035600019169060200190929190803590602001908201803590602001908080601f0160208091040260200160405190810160405280939291908181526020018383808284378201915050505050509192919290803590602001908201803590602001908080601f01602080910402602001604051908101604052809392919081815260200183838082843782019150505050505091929192905050506114e4565b005b3480156103c757600080fd5b506103d06114e9565b005b3480156103de57600080fd5b506103e76115c5565b005b3480156103f557600080fd5b50610450600480360381019080803590602001908201803590602001908080601f016020809104026020016040519081016040528093929190818152602001838380828437820191505050505050919291929050505061165a565b005b34801561045e57600080fd5b506104b9600480360381019080803590602001908201803590602001908080601f01602080910402602001604051908101604052809392919081815260200183838082843782019150505050505091929192905050506116cf565b6040518082815260200191505060405180910390f35b3480156104db57600080fd5b50610536600480360381019080803590602001908201803590602001908080601f01602080910402602001604051908101604052809392919081815260200183838082843782019150505050505091929192905050506117ef565b604051808573ffffffffffffffffffffffffffffffffffffffff1673ffffffffffffffffffffffffffffffffffffffff1681526020018460001916600019168152602001836000191660001916815260200182815260200194505050505060405180910390f35b3480156105a957600080fd5b506105b2611a88565b604051808273ffffffffffffffffffffffffffffffffffffffff1673ffffffffffffffffffffffffffffffffffffffff16815260200191505060405180910390f35b34801561060057600080fd5b50610621600480360381019080803515159060200190929190505050611aad565b005b34801561062f57600080fd5b50610638611b25565b6040518080602001828103825283818151815260200191508051906020019080838360005b8381101561067857808201518184015260208101905061065d565b50505050905090810190601f1680156106a55780820380516001836020036101000a031916815260200191505b509250505060405180910390f35b3480156106bf57600080fd5b506106f4600480360381019080803573ffffffffffffffffffffffffffffffffffffffff169060200190929190505050611bc3565b005b34801561070257600080fd5b5061070b611dda565b604051808215151515815260200191505060405180910390f35b6107e1600480360381019080803590602001908201803590602001908080601f01602080910402602001604051908101604052809392919081815260200183838082843782019150505050505091929192908035600019169060200190929190803590602001908201803590602001908080601f01602080910402602001604051908101604052809392919081815260200183838082843782019150505050505091929192908035600019169060200190929190505050611ded565b005b610847600480360381019080803590602001908201803590602001908080601f016020809104026020016040519081016040528093929190818152602001838380828437820191505050505050919291929080359060200190929190505050612272565b005b606081600115156006826040518082805190602001908083835b6020831015156108885780518252602082019150602081019050602083039250610863565b6001836020036101000a038019825116818451168082178552505050505050905001915050908152602001604051809103902060060160009054906101000a900460ff1615151415156108da57600080fd5b6006836040518082805190602001908083835b60208310151561091257805182526020820191506020810190506020830392506108ed565b6001836020036101000a03801982511681845116808217855250505050505090500191505090815260200160405180910390206002018054600181600116156101000203166002900480601f0160208091040260200160405190810160405280929190818152602001828054600181600116156101000203166002900480156109dc5780601f106109b1576101008083540402835291602001916109dc565b820191906000526020600020905b8154815290600101906020018083116109bf57829003601f168201915b5050505050915050919050565b60008082600115156006826040518082805190602001908083835b602083101515610a295780518252602082019150602081019050602083039250610a04565b6001836020036101000a038019825116818451168082178552505050505050905001915050908152602001604051809103902060060160009054906101000a900460ff161515141515610a7b57600080fd5b6006846040518082805190602001908083835b602083101515610ab35780518252602082019150602081019050602083039250610a8e565b6001836020036101000a0380198251168184511680821785525050505050509050019150509081526020016040518091039020600301546006856040518082805190602001908083835b602083101515610b225780518252602082019150602081019050602083039250610afd565b6001836020036101000a0380198251168184511680821785525050505050509050019150509081526020016040518091039020600401549250925050915091565b60085481565b610b71612939565b73ffffffffffffffffffffffffffffffffffffffff163373ffffffffffffffffffffffffffffffffffffffff16141515610baa57600080fd5b6001151560066007600085600019166000191681526020019081526020016000206040518082805460018160011615610100020316600290048015610c265780601f10610c04576101008083540402835291820191610c26565b820191906000526020600020905b815481529060010190602001808311610c12575b5050915050908152602001604051809103902060060160009054906101000a900460ff161515141515610c5857600080fd5b60011515610d196007600085600019166000191681526020019081526020016000208054600181600116156101000203166002900480601f016020809104026020016040519081016040528092919081815260200182805460018160011615610100020316600290048015610d0e5780601f10610ce357610100808354040283529160200191610d0e565b820191906000526020600020905b815481529060010190602001808311610cf157829003601f168201915b505050505083612c9b565b1515141561114c57600360066007600085600019166000191681526020019081526020016000206040518082805460018160011615610100020316600290048015610d9b5780601f10610d79576101008083540402835291820191610d9b565b820191906000526020600020905b815481529060010190602001808311610d87575b5050915050908152602001604051809103902060060160016101000a81548160ff02191690836004811115610dcc57fe5b02179055504360066007600085600019166000191681526020019081526020016000206040518082805460018160011615610100020316600290048015610e4a5780601f10610e28576101008083540402835291820191610e4a565b820191906000526020600020905b815481529060010190602001808311610e36575b505091505090815260200160405180910390206004018190555060066007600084600019166000191681526020019081526020016000206040518082805460018160011615610100020316600290048015610edc5780601f10610eba576101008083540402835291820191610edc565b820191906000526020600020905b815481529060010190602001808311610ec8575b5050915050908152602001604051809103902060000160009054906101000a900473ffffffffffffffffffffffffffffffffffffffff1673ffffffffffffffffffffffffffffffffffffffff167f6f8a5163dd3b9dcb9fb247fc57e25dd9def5a1944f996404f95c1af6398b1ac060076000856000191660001916815260200190815260200160002060066007600087600019166000191681526020019081526020016000206040518082805460018160011615610100020316600290048015610fdd5780601f10610fbb576101008083540402835291820191610fdd565b820191906000526020600020905b815481529060010190602001808311610fc9575b5050915050908152602001604051809103902060020160016040518080602001806020018415151515815260200183810383528681815460018160011615610100020316600290048152602001915080546001816001161561010002031660029004801561108c5780601f106110615761010080835404028352916020019161108c565b820191906000526020600020905b81548152906001019060200180831161106f57829003601f168201915b505083810382528581815460018160011615610100020316600290048152602001915080546001816001161561010002031660029004801561110f5780601f106110e45761010080835404028352916020019161110f565b820191906000526020600020905b8154815290600101906020018083116110f257829003601f168201915b50509550505050505060405180910390a2600760008360001916600019168152602001908152602001600020600061114791906140d9565b6114e0565b6004600660076000856000191660001916815260200190815260200160002060405180828054600181600116156101000203166002900480156111c65780601f106111a45761010080835404028352918201916111c6565b820191906000526020600020905b8154815290600101906020018083116111b2575b5050915050908152602001604051809103902060060160016101000a81548160ff021916908360048111156111f757fe5b0217905550600660076000846000191660001916815260200190815260200160002060405180828054600181600116156101000203166002900480156112745780601f10611252576101008083540402835291820191611274565b820191906000526020600020905b815481529060010190602001808311611260575b5050915050908152602001604051809103902060000160009054906101000a900473ffffffffffffffffffffffffffffffffffffffff1673ffffffffffffffffffffffffffffffffffffffff167f6f8a5163dd3b9dcb9fb247fc57e25dd9def5a1944f996404f95c1af6398b1ac0600760008560001916600019168152602001908152602001600020600660076000876000191660001916815260200190815260200160002060405180828054600181600116156101000203166002900480156113755780601f10611353576101008083540402835291820191611375565b820191906000526020600020905b815481529060010190602001808311611361575b505091505090815260200160405180910390206002016000604051808060200180602001841515151581526020018381038352868181546001816001161561010002031660029004815260200191508054600181600116156101000203166002900480156114245780601f106113f957610100808354040283529160200191611424565b820191906000526020600020905b81548152906001019060200180831161140757829003601f168201915b50508381038252858181546001816001161561010002031660029004815260200191508054600181600116156101000203166002900480156114a75780601f1061147c576101008083540402835291602001916114a7565b820191906000526020600020905b81548152906001019060200180831161148a57829003601f168201915b50509550505050505060405180910390a260076000836000191660001916815260200190815260200160002060006114df91906140d9565b5b5050565b505050565b6000809054906101000a900473ffffffffffffffffffffffffffffffffffffffff1673ffffffffffffffffffffffffffffffffffffffff163373ffffffffffffffffffffffffffffffffffffffff1614151561154457600080fd5b6000809054906101000a900473ffffffffffffffffffffffffffffffffffffffff1673ffffffffffffffffffffffffffffffffffffffff166108fc3073ffffffffffffffffffffffffffffffffffffffff16319081150290604051600060405180830381858888f193505050501580156115c2573d6000803e3d6000fd5b50565b6000809054906101000a900473ffffffffffffffffffffffffffffffffffffffff1673ffffffffffffffffffffffffffffffffffffffff163373ffffffffffffffffffffffffffffffffffffffff1614151561162057600080fd5b6000809054906101000a900473ffffffffffffffffffffffffffffffffffffffff1673ffffffffffffffffffffffffffffffffffffffff16ff5b6000809054906101000a900473ffffffffffffffffffffffffffffffffffffffff1673ffffffffffffffffffffffffffffffffffffffff163373ffffffffffffffffffffffffffffffffffffffff161415156116b557600080fd5b80600990805190602001906116cb929190614121565b5050565b600081600115156006826040518082805190602001908083835b60208310151561170e57805182526020820191506020810190506020830392506116e9565b6001836020036101000a038019825116818451168082178552505050505050905001915050908152602001604051809103902060060160009054906101000a900460ff16151514151561176057600080fd5b6006836040518082805190602001908083835b6020831015156117985780518252602082019150602081019050602083039250611773565b6001836020036101000a038019825116818451168082178552505050505050905001915050908152602001604051809103902060060160019054906101000a900460ff1660048111156117e757fe5b915050919050565b60008060008084600115156006826040518082805190602001908083835b602083101515611832578051825260208201915060208101905060208303925061180d565b6001836020036101000a038019825116818451168082178552505050505050905001915050908152602001604051809103902060060160009054906101000a900460ff16151514151561188457600080fd5b6006866040518082805190602001908083835b6020831015156118bc5780518252602082019150602081019050602083039250611897565b6001836020036101000a038019825116818451168082178552505050505050905001915050908152602001604051809103902060000160009054906101000a900473ffffffffffffffffffffffffffffffffffffffff166006876040518082805190602001908083835b60208310151561194b5780518252602082019150602081019050602083039250611926565b6001836020036101000a0380198251168184511680821785525050505050509050019150509081526020016040518091039020600101546006886040518082805190602001908083835b6020831015156119ba5780518252602082019150602081019050602083039250611995565b6001836020036101000a0380198251168184511680821785525050505050509050019150509081526020016040518091039020600501546006896040518082805190602001908083835b602083101515611a295780518252602082019150602081019050602083039250611a04565b6001836020036101000a038019825116818451168082178552505050505050905001915050908152602001604051809103902060060160019054906101000a900460ff166004811115611a7857fe5b9450945094509450509193509193565b6000809054906101000a900473ffffffffffffffffffffffffffffffffffffffff1681565b6000809054906101000a900473ffffffffffffffffffffffffffffffffffffffff1673ffffffffffffffffffffffffffffffffffffffff163373ffffffffffffffffffffffffffffffffffffffff16141515611b0857600080fd5b80600060146101000a81548160ff02191690831515021790555050565b60098054600181600116156101000203166002900480601f016020809104026020016040519081016040528092919081815260200182805460018160011615610100020316600290048015611bbb5780601f10611b9057610100808354040283529160200191611bbb565b820191906000526020600020905b815481529060010190602001808311611b9e57829003601f168201915b505050505081565b60008060009054906101000a900473ffffffffffffffffffffffffffffffffffffffff1673ffffffffffffffffffffffffffffffffffffffff163373ffffffffffffffffffffffffffffffffffffffff16141515611c2057600080fd5b818073ffffffffffffffffffffffffffffffffffffffff166000809054906101000a900473ffffffffffffffffffffffffffffffffffffffff1673ffffffffffffffffffffffffffffffffffffffff1614151515611c7d57600080fd5b600073ffffffffffffffffffffffffffffffffffffffff168173ffffffffffffffffffffffffffffffffffffffff1614151515611cb957600080fd5b6000809054906101000a900473ffffffffffffffffffffffffffffffffffffffff169150826000806101000a81548173ffffffffffffffffffffffffffffffffffffffff021916908373ffffffffffffffffffffffffffffffffffffffff1602179055507f0384899bd253d83b23daa4d29aaa2efe0563d1132b43101e9ad667235aeb951b6000809054906101000a900473ffffffffffffffffffffffffffffffffffffffff1683604051808373ffffffffffffffffffffffffffffffffffffffff1673ffffffffffffffffffffffffffffffffffffffff1681526020018273ffffffffffffffffffffffffffffffffffffffff1673ffffffffffffffffffffffffffffffffffffffff1681526020019250505060405180910390a1505050565b600060149054906101000a900460ff1681565b60011515600060149054906101000a900460ff161515141515611e0f57600080fd5b83600015156006826040518082805190602001908083835b602083101515611e4c5780518252602082019150602081019050602083039250611e27565b6001836020036101000a038019825116818451168082178552505050505050905001915050908152602001604051809103902060060160009054906101000a900460ff161515141515611e9e57600080fd5b8460001515611ee2826040805190810160405280600181526020017f3000000000000000000000000000000000000000000000000000000000000000815250612c9b565b1515141515611ef057600080fd5b8360001515611f34826040805190810160405280600181526020017f3000000000000000000000000000000000000000000000000000000000000000815250612c9b565b1515141515611f4257600080fd5b600854600160085401111515611f5757600080fd5b610100604051908101604052803373ffffffffffffffffffffffffffffffffffffffff16815260200187600019168152602001868152602001438152602001600081526020018560001916815260200160011515815260200160016004811115611fbd57fe5b8152506006886040518082805190602001908083835b602083101515611ff85780518252602082019150602081019050602083039250611fd3565b6001836020036101000a038019825116818451168082178552505050505050905001915050908152602001604051809103902060008201518160000160006101000a81548173ffffffffffffffffffffffffffffffffffffffff021916908373ffffffffffffffffffffffffffffffffffffffff16021790555060208201518160010190600019169055604082015181600201908051906020019061209e9291906141a1565b50606082015181600301556080820151816004015560a0820151816005019060001916905560c08201518160060160006101000a81548160ff02191690831515021790555060e08201518160060160016101000a81548160ff0219169083600481111561210757fe5b02179055509050506008600081548092919060010191905055503373ffffffffffffffffffffffffffffffffffffffff167f5a31f2c49f625c3497c897594cc54eb12534978019770da484ebe304b2a2ab5d8886888a4360405180806020018660001916600019168152602001806020018560001916600019168152602001848152602001838103835288818151815260200191508051906020019080838360005b838110156121c45780820151818401526020810190506121a9565b50505050905090810190601f1680156121f15780820380516001836020036101000a031916815260200191505b50838103825286818151815260200191508051906020019080838360005b8381101561222a57808201518184015260208101905061220f565b50505050905090810190601f1680156122575780820380516001836020036101000a031916815260200191505b5097505050505050505060405180910390a250505050505050565b600060011515600060149054906101000a900460ff16151514151561229657600080fd5b82600115156006826040518082805190602001908083835b6020831015156122d357805182526020820191506020810190506020830392506122ae565b6001836020036101000a038019825116818451168082178552505050505050905001915050908152602001604051809103902060060160009054906101000a900460ff16151514151561232557600080fd5b6000600481111561233257fe5b6006856040518082805190602001908083835b60208310151561236a5780518252602082019150602081019050602083039250612345565b6001836020036101000a038019825116818451168082178552505050505050905001915050908152602001604051809103902060060160019054906101000a900460ff1660048111156123b957fe5b141515156123c657600080fd5b346124066040805190810160405280600381526020017f55524c000000000000000000000000000000000000000000000000000000000081525085612e4c565b10151561241257600080fd5b346124526040805190810160405280600381526020017f55524c000000000000000000000000000000000000000000000000000000000081525085612e4c565b10156128015760026006856040518082805190602001908083835b602083101515612492578051825260208201915060208101905060208303925061246d565b6001836020036101000a038019825116818451168082178552505050505050905001915050908152602001604051809103902060060160016101000a81548160ff021916908360048111156124e357fe5b021790555061273c6040805190810160405280600381526020017f55524c00000000000000000000000000000000000000000000000000000000008152506127376040805190810160405280600581526020017f6a736f6e2800000000000000000000000000000000000000000000000000000081525060098054600181600116156101000203166002900480601f0160208091040260200160405190810160405280929190818152602001828054600181600116156101000203166002900480156125f05780601f106125c5576101008083540402835291602001916125f0565b820191906000526020600020905b8154815290600101906020018083116125d357829003601f168201915b50505050506006896040518082805190602001908083835b60208310151561262d5780518252602082019150602081019050602083039250612608565b6001836020036101000a03801982511681845116808217855250505050505090500191505090815260200160405180910390206002018054600181600116156101000203166002900480601f0160208091040260200160405190810160405280929190818152602001828054600181600116156101000203166002900480156126f75780601f106126cc576101008083540402835291602001916126f7565b820191906000526020600020905b8154815290600101906020018083116126da57829003601f168201915b50505050506040805190810160405280600d81526020017f292e61637475616c5f6861736800000000000000000000000000000000000000815250613229565b613252565b915083600760008460001916600019168152602001908152602001600020908051906020019061276d929190614121565b507f621c2856e3b87f81235f8ac8a22bbb40a0142961960710d00b2b6c380902b57e6040518080602001828103825260358152602001807f4f7261636c697a65207175657279207761732073656e742c207374616e64696e81526020017f6720627920666f722074686520616e737765722e2e000000000000000000000081525060400191505060405180910390a1612933565b7f621c2856e3b87f81235f8ac8a22bbb40a0142961960710d00b2b6c380902b57e60405180806020018281038252604b8152602001807f4f7261636c697a6520717565727920776173204e4f542073656e742c20706c6581526020017f6173652061646420736f6d652045544820746f20636f76657220666f7220746881526020017f652071756572792066656500000000000000000000000000000000000000000081525060600191505060405180910390a17fcaf933235394d2a123fe2842c448f9ac4aa2cabd3387cbef30f0b9672c8948e36129156040805190810160405280600381526020017f55524c000000000000000000000000000000000000000000000000000000000081525085612e4c565b34604051808381526020018281526020019250505060405180910390a15b50505050565b600080600160009054906101000a900473ffffffffffffffffffffffffffffffffffffffff1673ffffffffffffffffffffffffffffffffffffffff1614806129ab575060006129a9600160009054906101000a900473ffffffffffffffffffffffffffffffffffffffff166137f8565b145b156129bc576129ba6000613803565b505b600160009054906101000a900473ffffffffffffffffffffffffffffffffffffffff1673ffffffffffffffffffffffffffffffffffffffff166338cc48316040518163ffffffff167c0100000000000000000000000000000000000000000000000000000000028152600401602060405180830381600087803b158015612a4257600080fd5b505af1158015612a56573d6000803e3d6000fd5b505050506040513d6020811015612a6c57600080fd5b810190808051906020019092919050505073ffffffffffffffffffffffffffffffffffffffff16600260009054906101000a900473ffffffffffffffffffffffffffffffffffffffff1673ffffffffffffffffffffffffffffffffffffffff16141515612bd557600160009054906101000a900473ffffffffffffffffffffffffffffffffffffffff1673ffffffffffffffffffffffffffffffffffffffff166338cc48316040518163ffffffff167c0100000000000000000000000000000000000000000000000000000000028152600401602060405180830381600087803b158015612b5957600080fd5b505af1158015612b6d573d6000803e3d6000fd5b505050506040513d6020811015612b8357600080fd5b8101908080519060200190929190505050600260006101000a81548173ffffffffffffffffffffffffffffffffffffffff021916908373ffffffffffffffffffffffffffffffffffffffff1602179055505b600260009054906101000a900473ffffffffffffffffffffffffffffffffffffffff1673ffffffffffffffffffffffffffffffffffffffff1663c281d19e6040518163ffffffff167c0100000000000000000000000000000000000000000000000000000000028152600401602060405180830381600087803b158015612c5b57600080fd5b505af1158015612c6f573d6000803e3d6000fd5b505050506040513d6020811015612c8557600080fd5b8101908080519060200190929190505050905090565b6000816040516020018082805190602001908083835b602083101515612cd65780518252602082019150602081019050602083039250612cb1565b6001836020036101000a0380198251168184511680821785525050505050509050019150506040516020818303038152906040526040518082805190602001908083835b602083101515612d3f5780518252602082019150602081019050602083039250612d1a565b6001836020036101000a038019825116818451168082178552505050505050905001915050604051809103902060001916836040516020018082805190602001908083835b602083101515612da95780518252602082019150602081019050602083039250612d84565b6001836020036101000a0380198251168184511680821785525050505050509050019150506040516020818303038152906040526040518082805190602001908083835b602083101515612e125780518252602082019150602081019050602083039250612ded565b6001836020036101000a03801982511681845116808217855250505050505090500191505060405180910390206000191614905092915050565b600080600160009054906101000a900473ffffffffffffffffffffffffffffffffffffffff1673ffffffffffffffffffffffffffffffffffffffff161480612ebe57506000612ebc600160009054906101000a900473ffffffffffffffffffffffffffffffffffffffff166137f8565b145b15612ecf57612ecd6000613803565b505b600160009054906101000a900473ffffffffffffffffffffffffffffffffffffffff1673ffffffffffffffffffffffffffffffffffffffff166338cc48316040518163ffffffff167c0100000000000000000000000000000000000000000000000000000000028152600401602060405180830381600087803b158015612f5557600080fd5b505af1158015612f69573d6000803e3d6000fd5b505050506040513d6020811015612f7f57600080fd5b810190808051906020019092919050505073ffffffffffffffffffffffffffffffffffffffff16600260009054906101000a900473ffffffffffffffffffffffffffffffffffffffff1673ffffffffffffffffffffffffffffffffffffffff161415156130e857600160009054906101000a900473ffffffffffffffffffffffffffffffffffffffff1673ffffffffffffffffffffffffffffffffffffffff166338cc48316040518163ffffffff167c0100000000000000000000000000000000000000000000000000000000028152600401602060405180830381600087803b15801561306c57600080fd5b505af1158015613080573d6000803e3d6000fd5b505050506040513d602081101561309657600080fd5b8101908080519060200190929190505050600260006101000a81548173ffffffffffffffffffffffffffffffffffffffff021916908373ffffffffffffffffffffffffffffffffffffffff1602179055505b600260009054906101000a900473ffffffffffffffffffffffffffffffffffffffff1673ffffffffffffffffffffffffffffffffffffffff16632ef3accc84846040518363ffffffff167c01000000000000000000000000000000000000000000000000000000000281526004018080602001838152602001828103825284818151815260200191508051906020019080838360005b8381101561319957808201518184015260208101905061317e565b50505050905090810190601f1680156131c65780820380516001836020036101000a031916815260200191505b509350505050602060405180830381600087803b1580156131e657600080fd5b505af11580156131fa573d6000803e3d6000fd5b505050506040513d602081101561321057600080fd5b8101908080519060200190929190505050905092915050565b6060613248858585856020604051908101604052806000815250613814565b9050949350505050565b6000806000600160009054906101000a900473ffffffffffffffffffffffffffffffffffffffff1673ffffffffffffffffffffffffffffffffffffffff1614806132c6575060006132c4600160009054906101000a900473ffffffffffffffffffffffffffffffffffffffff166137f8565b145b156132d7576132d56000613803565b505b600160009054906101000a900473ffffffffffffffffffffffffffffffffffffffff1673ffffffffffffffffffffffffffffffffffffffff166338cc48316040518163ffffffff167c0100000000000000000000000000000000000000000000000000000000028152600401602060405180830381600087803b15801561335d57600080fd5b505af1158015613371573d6000803e3d6000fd5b505050506040513d602081101561338757600080fd5b810190808051906020019092919050505073ffffffffffffffffffffffffffffffffffffffff16600260009054906101000a900473ffffffffffffffffffffffffffffffffffffffff1673ffffffffffffffffffffffffffffffffffffffff161415156134f057600160009054906101000a900473ffffffffffffffffffffffffffffffffffffffff1673ffffffffffffffffffffffffffffffffffffffff166338cc48316040518163ffffffff167c0100000000000000000000000000000000000000000000000000000000028152600401602060405180830381600087803b15801561347457600080fd5b505af1158015613488573d6000803e3d6000fd5b505050506040513d602081101561349e57600080fd5b8101908080519060200190929190505050600260006101000a81548173ffffffffffffffffffffffffffffffffffffffff021916908373ffffffffffffffffffffffffffffffffffffffff1602179055505b600260009054906101000a900473ffffffffffffffffffffffffffffffffffffffff1673ffffffffffffffffffffffffffffffffffffffff1663524f3889856040518263ffffffff167c01000000000000000000000000000000000000000000000000000000000281526004018080602001828103825283818151815260200191508051906020019080838360005b8381101561359a57808201518184015260208101905061357f565b50505050905090810190601f1680156135c75780820380516001836020036101000a031916815260200191505b5092505050602060405180830381600087803b1580156135e657600080fd5b505af11580156135fa573d6000803e3d6000fd5b505050506040513d602081101561361057600080fd5b8101908080519060200190929190505050905062030d403a02670de0b6b3a76400000181111561364657600060010291506137f1565b600260009054906101000a900473ffffffffffffffffffffffffffffffffffffffff1673ffffffffffffffffffffffffffffffffffffffff1663adf59f9982600087876040518563ffffffff167c0100000000000000000000000000000000000000000000000000000000028152600401808481526020018060200180602001838103835285818151815260200191508051906020019080838360005b838110156136fe5780820151818401526020810190506136e3565b50505050905090810190601f16801561372b5780820380516001836020036101000a031916815260200191505b50838103825284818151815260200191508051906020019080838360005b83811015613764578082015181840152602081019050613749565b50505050905090810190601f1680156137915780820380516001836020036101000a031916815260200191505b50955050505050506020604051808303818588803b1580156137b257600080fd5b505af11580156137c6573d6000803e3d6000fd5b50505050506040513d60208110156137dd57600080fd5b810190808051906020019092919050505091505b5092915050565b6000813b9050919050565b600061380d613c29565b9050919050565b6060806060806060806060806000808e98508d97508c96508b95508a94508451865188518a518c51010101016040519080825280601f01601f1916602001820160405280156138725781602001602082028038833980820191505090505b50935083925060009150600090505b885181101561393457888181518110151561389857fe5b9060200101517f010000000000000000000000000000000000000000000000000000000000000090047f01000000000000000000000000000000000000000000000000000000000000000283838060010194508151811015156138f757fe5b9060200101907effffffffffffffffffffffffffffffffffffffffffffffffffffffffffffff1916908160001a9053508080600101915050613881565b600090505b87518110156139ec57878181518110151561395057fe5b9060200101517f010000000000000000000000000000000000000000000000000000000000000090047f01000000000000000000000000000000000000000000000000000000000000000283838060010194508151811015156139af57fe5b9060200101907effffffffffffffffffffffffffffffffffffffffffffffffffffffffffffff1916908160001a9053508080600101915050613939565b600090505b8651811015613aa4578681815181101515613a0857fe5b9060200101517f010000000000000000000000000000000000000000000000000000000000000090047f0100000000000000000000000000000000000000000000000000000000000000028383806001019450815181101515613a6757fe5b9060200101907effffffffffffffffffffffffffffffffffffffffffffffffffffffffffffff1916908160001a90535080806001019150506139f1565b600090505b8551811015613b5c578581815181101515613ac057fe5b9060200101517f010000000000000000000000000000000000000000000000000000000000000090047f0100000000000000000000000000000000000000000000000000000000000000028383806001019450815181101515613b1f57fe5b9060200101907effffffffffffffffffffffffffffffffffffffffffffffffffffffffffffff1916908160001a9053508080600101915050613aa9565b600090505b8451811015613c14578481815181101515613b7857fe5b9060200101517f010000000000000000000000000000000000000000000000000000000000000090047f0100000000000000000000000000000000000000000000000000000000000000028383806001019450815181101515613bd757fe5b9060200101907effffffffffffffffffffffffffffffffffffffffffffffffffffffffffffff1916908160001a9053508080600101915050613b61565b82995050505050505050505095945050505050565b600080613c49731d3b2638a7cc9f2cb3d298a3da7a90b67e5506ed6137f8565b1115613ceb57731d3b2638a7cc9f2cb3d298a3da7a90b67e5506ed600160006101000a81548173ffffffffffffffffffffffffffffffffffffffff021916908373ffffffffffffffffffffffffffffffffffffffff160217905550613ce26040805190810160405280600b81526020017f6574685f6d61696e6e65740000000000000000000000000000000000000000008152506140bf565b600190506140bc565b6000613d0a73c03a2615d5efaf5f49f60b7bb6583eaec212fdf16137f8565b1115613dac5773c03a2615d5efaf5f49f60b7bb6583eaec212fdf1600160006101000a81548173ffffffffffffffffffffffffffffffffffffffff021916908373ffffffffffffffffffffffffffffffffffffffff160217905550613da36040805190810160405280600c81526020017f6574685f726f707374656e3300000000000000000000000000000000000000008152506140bf565b600190506140bc565b6000613dcb73b7a07bcf2ba2f2703b24c0691b5278999c59ac7e6137f8565b1115613e6d5773b7a07bcf2ba2f2703b24c0691b5278999c59ac7e600160006101000a81548173ffffffffffffffffffffffffffffffffffffffff021916908373ffffffffffffffffffffffffffffffffffffffff160217905550613e646040805190810160405280600981526020017f6574685f6b6f76616e00000000000000000000000000000000000000000000008152506140bf565b600190506140bc565b6000613e8c73146500cfd35b22e4a392fe0adc06de1a1368ed486137f8565b1115613f2e5773146500cfd35b22e4a392fe0adc06de1a1368ed48600160006101000a81548173ffffffffffffffffffffffffffffffffffffffff021916908373ffffffffffffffffffffffffffffffffffffffff160217905550613f256040805190810160405280600b81526020017f6574685f72696e6b6562790000000000000000000000000000000000000000008152506140bf565b600190506140bc565b6000613f4d736f485c8bf6fc43ea212e93bbf8ce046c7f1cb4756137f8565b1115613fb157736f485c8bf6fc43ea212e93bbf8ce046c7f1cb475600160006101000a81548173ffffffffffffffffffffffffffffffffffffffff021916908373ffffffffffffffffffffffffffffffffffffffff160217905550600190506140bc565b6000613fd07320e12a1f859b3feae5fb2a0a32c18f5a65555bbf6137f8565b1115614034577320e12a1f859b3feae5fb2a0a32c18f5a65555bbf600160006101000a81548173ffffffffffffffffffffffffffffffffffffffff021916908373ffffffffffffffffffffffffffffffffffffffff160217905550600190506140bc565b60006140537351efaf4c8b3c9afbd5ab9f4bbc82784ab6ef8faa6137f8565b11156140b7577351efaf4c8b3c9afbd5ab9f4bbc82784ab6ef8faa600160006101000a81548173ffffffffffffffffffffffffffffffffffffffff021916908373ffffffffffffffffffffffffffffffffffffffff160217905550600190506140bc565b600090505b90565b80600390805190602001906140d5929190614121565b5050565b50805460018160011615610100020316600290046000825580601f106140ff575061411e565b601f01602090049060005260206000209081019061411d9190614221565b5b50565b828054600181600116156101000203166002900490600052602060002090601f016020900481019282601f1061416257805160ff1916838001178555614190565b82800160010185558215614190579182015b8281111561418f578251825591602001919060010190614174565b5b50905061419d9190614221565b5090565b828054600181600116156101000203166002900490600052602060002090601f016020900481019282601f106141e257805160ff1916838001178555614210565b82800160010185558215614210579182015b8281111561420f5782518255916020019190600101906141f4565b5b50905061421d9190614221565b5090565b61424391905b8082111561423f576000816000905550600101614227565b5090565b905600a165627a7a72305820cdd3f6449a2d68015f2776898b13921cac247903b0d8bcfa3ab0a3221ba0673f0029",
  "source": "pragma solidity 0.4.24;\n\nimport \"./Ownable.sol\";\nimport \"../installed_contracts/oraclize-api/contracts/usingOraclize.sol\";\n\ncontract ProofOfExistence is Ownable, usingOraclize {\n\n  enum DocumentState{\n      DocumentNull,\n      DocumentUploaded,\n      DocumentBeingVerified,\n      DocumentVerified,\n      DocumentVerifyFailed\n  }\n\n  mapping (string => Document) private hashToDocuments;\n  mapping (bytes32 => string) private queryToHash;\n\n  uint256 public totalItems;\n  string public verifyApiCall;\n\n  struct Document{\n    address documentOwner;\n    bytes32 docName;\n    string ipfsHash;\n    uint256 publishedBlockNumber;\n    uint256 verifiedBlockNumber;\n    bytes32 dataType;\n    bool exist;\n    DocumentState state;\n  }\n\n  modifier documentExist(string _document){\n    require(hashToDocuments[_document].exist == true);\n    _;\n  }\n\n  modifier documentDoesNotExist(string _document){\n    require(hashToDocuments[_document].exist == false);\n    _;\n  }\n\n  modifier nonZero(string _str){\n    require(compareStrings(_str, \"0\") == false);\n    _;\n  }\n\n  event DocumentStored(address indexed _docOwner, string _hashed_doc, bytes32 _dataType, string _ipfsHash, bytes32 _docName, uint256 _publishedBlockNumber);\n  event DocumentVerifyComplete(address indexed _docOwner, string _hashed_doc, string _ipfsHash, bool _result);\n  event LogNewOraclizeQuery(string _description);\n  event EmitPrice(uint _required, uint _sent);\n\n  constructor() public\n  {\n    //OAR = OraclizeAddrResolverI(0x4E8052BA76a00fB0A220500F53A467D5b207E252);\n  }\n\n  function setVerifyAPIGateway(string _verifyApiCall)\n  public onlyOwner\n  {\n    verifyApiCall = _verifyApiCall;\n  }\n\n  function storeDocumentData(string _hashed_doc, bytes32 _docName, string _ipfsHash, bytes32 _dataType)\n  public switchOn documentDoesNotExist(_hashed_doc)\n  nonZero(_hashed_doc)\n  nonZero(_ipfsHash)\n  payable {\n    //Check for overflow\n    require((totalItems + 1) >  totalItems);\n\n    hashToDocuments[_hashed_doc] = Document ({\n      documentOwner: msg.sender,\n      docName: _docName,\n      ipfsHash: _ipfsHash,\n      publishedBlockNumber: block.number,\n      verifiedBlockNumber: 0,\n      dataType: _dataType,\n      exist: true,\n      state: DocumentState.DocumentUploaded\n    });\n    totalItems++;\n    emit DocumentStored(msg.sender, _hashed_doc, _dataType, _ipfsHash, _docName, block.number);\n  }\n\n  function getDocumentIPFSHash(string _docHash)\n  public documentExist(_docHash) view returns (string)\n  {\n    return hashToDocuments[_docHash].ipfsHash;\n  }\n\n  function getDocumentMetaData(string _docHash)\n  public documentExist(_docHash) view returns (address, bytes32, bytes32, uint)\n  {\n    return (hashToDocuments[_docHash].documentOwner, hashToDocuments[_docHash].docName,\n    hashToDocuments[_docHash].dataType, uint(hashToDocuments[_docHash].state));\n  }\n\n  function getDocumentStatus(string _docHash)\n  public documentExist(_docHash) view returns (uint)\n  {\n    return uint(hashToDocuments[_docHash].state);\n  }\n\n  function getDocumentBlockInfo(string _docHash)\n  public documentExist(_docHash) view returns (uint, uint)\n  {\n    return (hashToDocuments[_docHash].publishedBlockNumber,\n    hashToDocuments[_docHash].verifiedBlockNumber);\n  }\n\n  function compareStrings (string a, string b) private pure returns (bool){\n       return keccak256(abi.encodePacked(a)) == keccak256(abi.encodePacked(b));\n  }\n\n  function __callback(bytes32 _queryId, string result)\n  public\n  {\n        require (msg.sender == oraclize_cbAddress());\n        require (hashToDocuments[queryToHash[_queryId]].exist == true);\n\n        if(compareStrings(queryToHash[_queryId], result) == true)\n        {\n            hashToDocuments[queryToHash[_queryId]].state = DocumentState.DocumentVerified;\n            hashToDocuments[queryToHash[_queryId]].verifiedBlockNumber = block.number;\n            emit DocumentVerifyComplete(hashToDocuments[queryToHash[_queryId]].documentOwner,\n            queryToHash[_queryId], hashToDocuments[queryToHash[_queryId]].ipfsHash, true);\n            delete queryToHash[_queryId];\n        }\n        else\n        {\n            hashToDocuments[queryToHash[_queryId]].state = DocumentState.DocumentVerifyFailed;\n            emit DocumentVerifyComplete(hashToDocuments[queryToHash[_queryId]].documentOwner,\n            queryToHash[_queryId], hashToDocuments[queryToHash[_queryId]].ipfsHash, false);\n            delete queryToHash[_queryId];\n        }\n  }\n\n  function verifyIPFSHash(string _docHash, uint gasPrice)\n  public switchOn documentExist(_docHash) payable\n  {\n    require((hashToDocuments[_docHash].state != DocumentState.DocumentNull));\n    require(oraclize_getPrice(\"URL\", gasPrice) < msg.value);\n\n    if (oraclize_getPrice(\"URL\", gasPrice) < msg.value) {\n      hashToDocuments[_docHash].state = DocumentState.DocumentBeingVerified;\n      bytes32 queryId = oraclize_query('URL', strConcat('json(', verifyApiCall , hashToDocuments[_docHash].ipfsHash,').actual_hash'));\n      queryToHash[queryId] = _docHash;\n      emit LogNewOraclizeQuery(\"Oraclize query was sent, standing by for the answer..\");\n    }\n    else\n    {\n      emit LogNewOraclizeQuery(\"Oraclize query was NOT sent, please add some ETH to cover for the query fee\");\n      emit EmitPrice(oraclize_getPrice(\"URL\", gasPrice), msg.value);\n    }\n  }\n}\n",
  "sourcePath": "/Users/banffcyber/Desktop/blockchain/react-uport/contracts/ProofOfExistence.sol",
  "compiler": {
    "name": "solc",
    "version": "0.4.24+commit.e67f0147.Emscripten.clang"
  },
  "schemaVersion": "2.0.1",
  "updatedAt": "2018-08-26T15:05:53.341Z"
}